:020000040800F2
:1000000000C0002009330008D12A0008D32A0008C4
:10001000D52A0008D72A0008D92A000800000000C5
:10002000000000000000000000000000B16F0008A8
:10003000DB2A0008000000005170000895700008DD
:100040005133000851330008513300085133000880
:100050005133000851330008513300085133000870
:100060005133000851330008513300085133000860
:100070005133000851330008DD2A000851330008CD
:100080005133000851330008513300085133000840
:10009000ED2A00085133000851330008513300089D
:1000A0005133000851330008513300085133000820
:1000B0005133000851330008513300085133000810
:1000C0005133000851330008513300085133000800
:1000D00051330008513300085133000851330008F0
:1000E00051330008513300085133000851330008E0
:1000F00051330008513300085133000851330008D0
:1001000051330008513300085133000851330008BF
:100110005133000851330008FD2A0008513300080C
:10012000513300085133000851330008513300089F
:1001300000000000000000000000000000000000BF
:1001400000000000000000000000000000000000AF
:10015000000000000000000000000000000000009F
:10016000000000000000000000000000000000008F
:10017000000000000000000000000000000000007F
:10018000000000000000000000000000000000006F
:10019000000000000000000000000000000000005F
:1001A000000000000000000000000000000000004F
:1001B000000000000000000000000000000000003F
:1001C000000000000000000000000000000000002F
:1001D000000000000000000000000000000000001F
:0401E0005FF8E0F1F3
:1001F00010B5054C237833B9044B13B10448AFF361
:1002000000800123237010BDA8070020000000001B
:100210008CE4000808B5034B1BB103490348AFF356
:10022000008008BD00000000AC0700208CE400083E
:1002300081F0004102E000BF83F0004330B54FEA97
:1002400041044FEA430594EA050F08BF90EA020F04
:100250001FBF54EA000C55EA020C7FEA645C7FEA97
:10026000655C00F0E2804FEA5454D4EB5555B8BFBA
:100270006D420CDD2C4480EA020281EA030382EA2B
:10028000000083EA010180EA020281EA0303362DBD
:1002900088BF30BD11F0004F4FEA01314FF4801C90
:1002A0004CEA113102D0404261EB410113F0004FA2
:1002B0004FEA03334CEA133302D0524263EB430359
:1002C00094EA050F00F0A780A4F10104D5F1200EF7
:1002D0000DDB02FA0EFC22FA05F2801841F1000152
:1002E00003FA0EF2801843FA05F359410EE0A5F126
:1002F00020050EF1200E012A03FA0EFC28BF4CF057
:10030000020C43FA05F3C01851EBE37101F000450C
:1003100007D54FF0000EDCF1000C7EEB00006EEB19
:100320000101B1F5801F1BD3B1F5001F0CD34908A3
:100330005FEA30004FEA3C0C04F101044FEA4452FA
:1003400012F5800F80F09A80BCF1004F08BF5FEA81
:10035000500C50F1000041EB045141EA050130BD61
:100360005FEA4C0C404141EB0101013C28BFB1F573
:10037000801FE9D291F0000F04BF01460020B1FABE
:1003800081F308BF2033A3F10B03B3F120020CDA91
:100390000C3208DD02F1140CC2F10C0201FA0CF06F
:1003A00021FA02F10CE002F11402D8BFC2F1200CD4
:1003B00001FA02F120FA0CFCDCBF41EA0C0190408A
:1003C000E41AA2BF01EB0451294330BD6FEA0404D3
:1003D0001F3C1CDA0C340EDC04F11404C4F12002BE
:1003E00020FA04F001FA02F340EA030021FA04F3D0
:1003F00045EA030130BDC4F10C04C4F1200220FA27
:1004000002F001FA04F340EA0300294630BD21FA64
:1004100004F0294630BD94F0000F83F4801306BF2A
:1004200081F480110134013D4EE77FEA645C18BF1E
:100430007FEA655C29D094EA050F08BF90EA020FB5
:1004400005D054EA000C04BF1946104630BD91EAAD
:10045000030F1EBF0021002030BD5FEA545C05D1B0
:100460004000494128BF41F0004130BD14F58004EF
:100470003CBF01F5801130BD01F0004545F0FE4163
:1004800041F470014FF0000030BD7FEA645C1ABF98
:10049000194610467FEA655C1CBF0B46024650EACF
:1004A000013406BF52EA033591EA030F41F40021FB
:1004B00030BD00BF90F0000F04BF0021704730B581
:1004C0004FF4806404F132044FF000054FF0000156
:1004D00050E700BF90F0000F04BF0021704730B517
:1004E0004FF4806404F1320410F0004548BF4042EC
:1004F0004FF000013EE700BF42004FEAE2014FEA41
:1005000031014FEA02701FBF12F07F4393F07F4F1B
:1005100081F06051704732F07F4208BF704793F01E
:100520007F4F04BF41F40021704730B54FF4607431
:1005300001F0004521F000411CE700BF50EA010234
:1005400008BF704730B54FF000050AE050EA0102DD
:1005500008BF704730B511F0004502D5404261EB4D
:1005600041014FF4806404F132045FEA915C3FF48E
:10057000D8AE4FF003025FEADC0C18BF03325FEA2B
:10058000DC0C18BF033202EBDC02C2F1200300FADC
:1005900003FC20FA02F001FA03FE40EA0E0021FA01
:1005A00002F11444BDE600BF70B54FF0FF0C4CF4EF
:1005B000E06C1CEA11541DBF1CEA135594EA0C0FA1
:1005C00095EA0C0F00F0DEF82C4481EA030621EADC
:1005D0004C5123EA4C5350EA013518BF52EA033517
:1005E00041F4801143F4801338D0A0FB02CE4FF0C9
:1005F0000005E1FB02E506F00042E0FB03E54FF0F9
:100600000006E1FB03569CF0000F18BF4EF0010EF0
:10061000A4F1FF04B6F5007F64F5407404D25FEAEC
:100620004E0E6D4146EB060642EAC62141EA55519F
:100630004FEAC52040EA5E504FEACE2EB4F1FD0CE1
:1006400088BFBCF5E06F1ED8BEF1004F08BF5FEA5F
:10065000500E50F1000041EB045170BD06F0004611
:1006600046EA010140EA020081EA0301B4EB5C04BE
:10067000C2BFD4EB0C0541EA045170BD41F48011B6
:100680004FF0000E013C00F3AB8014F1360FDEBFDB
:10069000002001F0004170BDC4F10004203C35DAB7
:1006A0000C341BDC04F11404C4F1200500FA05F33A
:1006B00020FA04F001FA05F240EA020001F00042DB
:1006C00021F0004110EBD37021FA04F642EB060151
:1006D0005EEA430E08BF20EAD37070BDC4F10C047B
:1006E000C4F1200500FA04F320FA05F001FA04F23F
:1006F00040EA020001F0004110EBD37041F100012B
:100700005EEA430E08BF20EAD37070BDC4F1200535
:1007100000FA05F24EEA020E20FA04F301FA05F29D
:1007200043EA020321FA04F001F0004121FA04F245
:1007300020EA020000EBD3705EEA430E08BF20EA15
:10074000D37070BD94F0000F0FD101F0004640004F
:1007500041EB010111F4801F08BF013CF7D041EAD1
:10076000060195F0000F18BF704703F000465200D5
:1007700043EB030313F4801F08BF013DF7D043EAA6
:100780000603704794EA0C0F0CEA135518BF95EA5C
:100790000C0F0CD050EA410618BF52EA4306D1D1E3
:1007A00081EA030101F000414FF0000070BD50EA02
:1007B000410606BF1046194652EA430619D094EA8C
:1007C0000C0F02D150EA013613D195EA0C0F05D176
:1007D00052EA03361CBF104619460AD181EA0301CA
:1007E00001F0004141F0FE4141F470014FF0000082
:1007F00070BD41F0FE4141F4780170BD70B54FF01D
:10080000FF0C4CF4E06C1CEA11541DBF1CEA13559C
:1008100094EA0C0F95EA0C0F00F0A7F8A4EB05047E
:1008200081EA030E52EA03354FEA013100F0888075
:100830004FEA03334FF0805545EA131343EA12633E
:100840004FEA022245EA111545EA10654FEA0026F3
:100850000EF000419D4208BF964244F1FD0404F5AC
:10086000407402D25B084FEA3202B61A65EB030508
:100870005B084FEA32024FF480104FF4002CB6EBC5
:10088000020E75EB030E22BFB61A754640EA0C0045
:100890005B084FEA3202B6EB020E75EB030E22BF85
:1008A000B61A754640EA5C005B084FEA3202B6EBC6
:1008B000020E75EB030E22BFB61A754640EA9C0085
:1008C0005B084FEA3202B6EB020E75EB030E22BF55
:1008D000B61A754640EADC0055EA060E18D04FEA13
:1008E000051545EA16754FEA06164FEAC30343EAB3
:1008F00052734FEAC2025FEA1C1CC0D111F4801F80
:100900000BD141EA00014FF000004FF0004CB6E778
:1009100011F4801F04BF01430020B4F1FD0C88BF17
:10092000BCF5E06F3FF6AFAEB5EB030C04BFB6EB22
:10093000020C5FEA500C50F1000041EB045170BD15
:100940000EF0004E4EEA113114EB5C04C2BFD4EB42
:100950000C0541EA045170BD41F480114FF0000EC6
:10096000013C90E645EA060E8DE60CEA135594EA42
:100970000C0F08BF95EA0C0F3FF43BAF94EA0C0F45
:100980000AD150EA01347FF434AF95EA0C0F7FF4BA
:1009900025AF104619462CE795EA0C0F06D152EA0E
:1009A00003353FF4FDAE1046194622E750EA4106F2
:1009B00018BF52EA43067FF4C5AE50EA41047FF403
:1009C0000DAF52EA43057FF4EBAE12E74FF0FF3C68
:1009D00006E000BF4FF0010C02E000BF4FF0010C39
:1009E0004DF804CD4FEA410C7FEA6C5C4FEA430CB2
:1009F00018BF7FEA6C5C1BD001B050EA410C0CBF01
:100A000052EA430C91EA030F02BF90EA020F002062
:100A1000704710F1000F91EA030F58BF994208BFC9
:100A200090422CBFD8176FEAE37040F00100704786
:100A30004FEA410C7FEA6C5C02D150EA013C07D1DD
:100A40004FEA430C7FEA6C5CD6D152EA033CD3D028
:100A50005DF8040B704700BF8446104662468C4622
:100A60001946634600E000BF01B5FFF7B7FF002855
:100A700048BF10F1000F01BD4DF808EDFFF7F4FF7E
:100A80000CBF012000205DF808FB00BF4DF808ED09
:100A9000FFF7EAFF34BF012000205DF808FB00BF2C
:100AA0004DF808EDFFF7E0FF94BF012000205DF84E
:100AB00008FB00BF4DF808EDFFF7CEFF94BF012003
:100AC00000205DF808FB00BF4DF808EDFFF7C4FFFC
:100AD00034BF012000205DF808FB00BF4A0011D29E
:100AE00012F5001211D20DD56FF47873B3EB625288
:100AF0000ED44FEAC12343F0004343EA505323FA94
:100B000002F070474FF00000704750EA013002D108
:100B10004FF0FF3070474FF0000070474FEA41023E
:100B2000B2F1E04324BFB3F5001CDCF1FE5C0DD94B
:100B300001F0004C4FEAC0024CEA5070B2F1004F95
:100B400040EB830008BF20F00100704711F0804F98
:100B500021D113F13872BCBF01F00040704741F45D
:100B600080114FEA5252C2F11802C2F1200C10FA61
:100B70000CF320FA02F018BF40F001004FEAC12345
:100B80004FEAD32303FA0CFC40EA0C0023FA02F3E9
:100B90004FEA4303CCE77FEA625307D150EA0133BF
:100BA0001EBF4FF0FE4040F44000704701F000408F
:100BB00040F0FE4040F40000704700BF80F000406D
:100BC00002E000BF81F0004142001FBF5FEA410325
:100BD00092EA030F7FEA226C7FEA236C6AD04FEA25
:100BE0001262D2EB1363C1BFD2184140484041406A
:100BF000B8BF5B42192B88BF704710F0004F40F41C
:100C0000000020F07F4018BF404211F0004F41F437
:100C1000000121F07F4118BF494292EA030F3FD003
:100C2000A2F1010241FA03FC10EB0C00C3F1200316
:100C300001FA03F100F0004302D5494260EB4000A5
:100C4000B0F5000F13D3B0F1807F06D340084FEA10
:100C5000310102F10102FE2A51D2B1F1004F40EB05
:100C6000C25008BF20F0010040EA0300704749006D
:100C700040EB0000013A28BFB0F5000FEDD2B0FA0A
:100C800080FCACF1080CB2EB0C0200FA0CF0AABF2D
:100C900000EBC25052421843BCBFD04018437047CB
:100CA00092F0000F81F4000106BF80F400000132D1
:100CB000013BB5E74FEA41037FEA226C18BF7FEAA8
:100CC000236C21D092EA030F04D092F0000F08BFEA
:100CD0000846704790EA010F1CBF0020704712F0D1
:100CE0007F4F04D1400028BF40F00040704712F110
:100CF00000723CBF00F50000704700F0004343F075
:100D0000FE4040F4000070477FEA226216BF0846AA
:100D10007FEA23630146420206BF5FEA412390EA6D
:100D2000010F40F4800070474FF0000304E000BF63
:100D300010F0004348BF40425FEA000C08BF704714
:100D400043F0964301464FF000001CE050EA0102D8
:100D500008BF70474FF000030AE000BF50EA0102ED
:100D600008BF704711F0004302D5404261EB4101DA
:100D70005FEA010C02BF84460146002043F0B643FF
:100D800008BFA3F18053A3F50003BCFA8CF2083A24
:100D9000A3EBC25310DB01FA02FC634400FA02FC2D
:100DA000C2F12002BCF1004F20FA02F243EB020034
:100DB00008BF20F00100704702F1200201FA02FC96
:100DC000C2F1200250EA4C0021FA02F243EB020089
:100DD00008BF20EADC7070474FF0FF0C1CEAD052CD
:100DE0001EBF1CEAD15392EA0C0F93EA0C0F6FD08E
:100DF0001A4480EA010C400218BF5FEA41211ED06C
:100E00004FF0006343EA501043EA5111A0FB013157
:100E10000CF00040B1F5000F3EBF490041EAD3712C
:100E20005B0040EA010062F17F02FD2A1DD8B3F1A8
:100E3000004F40EBC25008BF20F00100704790F017
:100E4000000F0CF0004C08BF49024CEA502040EA69
:100E500051207F3AC2BFD2F1FF0340EAC25070472F
:100E600040F400004FF00003013A5DDC12F1190F6D
:100E7000DCBF00F000407047C2F10002410021FADF
:100E800002F1C2F1200200FA02FC5FEA310040F1F7
:100E9000000053EA4C0308BF20EADC70704792F070
:100EA000000F00F0004C02BF400010F4000F013AA8
:100EB000F9D040EA0C0093F0000F01F0004C02BFA3
:100EC000490011F4000F013BF9D041EA0C018FE712
:100ED0000CEAD15392EA0C0F18BF93EA0C0F0AD018
:100EE00030F0004C18BF31F0004CD8D180EA01003E
:100EF00000F00040704790F0000F17BF90F0004FD7
:100F0000084691F0000F91F0004F14D092EA0C0FB8
:100F100001D142020FD193EA0C0F03D14B0218BF4B
:100F2000084608D180EA010000F0004040F0FE4091
:100F300040F40000704740F0FE4040F4400070472D
:100F40004FF0FF0C1CEAD0521EBF1CEAD15392EAAC
:100F50000C0F93EA0C0F69D0A2EB030280EA010C9C
:100F600049024FEA402037D04FF0805343EA111135
:100F700043EA10130CF000408B4238BF5B0042F193
:100F80007D024FF4000C8B4224BF5B1A40EA0C0038
:100F9000B3EB510F24BFA3EB510340EA5C00B3EB6A
:100FA000910F24BFA3EB910340EA9C00B3EBD10F58
:100FB00024BFA3EBD10340EADC001B0118BF5FEAAA
:100FC0001C1CE0D1FD2A3FF650AF8B4240EBC250D3
:100FD00008BF20F0010070470CF0004C4CEA502094
:100FE0007F32C2BFD2F1FF0340EAC250704740F4E3
:100FF00000004FF00003013A37E792F0000F00F0D5
:10100000004C02BF400010F4000F013AF9D040EA52
:101010000C0093F0000F01F0004C02BF490011F4E6
:10102000000F013BF9D041EA0C0195E70CEAD153DE
:1010300092EA0C0F08D142027FF47DAF93EA0C0FC5
:101040007FF470AF084676E793EA0C0F04D14B02A9
:101050003FF44CAF08466EE730F0004C18BF31F05B
:10106000004CCAD130F000427FF45CAF31F0004355
:101070007FF43CAF5FE700BF4FF0FF3C06E000BFEE
:101080004FF0010C02E000BF4FF0010C4DF804CD11
:101090004FEA40024FEA41037FEA226C18BF7FEA21
:1010A000236C11D001B052EA530C18BF90EA010F23
:1010B00058BFB2EB030088BFC81738BF6FEAE170B2
:1010C00018BF40F0010070477FEA226C02D15FEA4E
:1010D000402C05D17FEA236CE4D15FEA412CE1D0BA
:1010E0005DF8040B704700BF844608466146FFE781
:1010F0000FB5FFF7C9FF002848BF10F1000F0FBD63
:101100004DF808EDFFF7F4FF0CBF012000205DF85B
:1011100008FB00BF4DF808EDFFF7EAFF34BF0120E0
:1011200000205DF808FB00BF4DF808EDFFF7E0FF79
:1011300094BF012000205DF808FB00BF4DF808EDCA
:10114000FFF7D2FF94BF012000205DF808FB00BF2D
:101150004DF808EDFFF7C8FF34BF012000205DF80F
:1011600008FB00BF4FEA4002B2F1FE4F0FD34FF031
:101170009E03B3EB12620DD94FEA002343F0004304
:1011800010F0004F23FA02F018BF404270474FF0B2
:101190000000704712F1610F01D1420205D110F039
:1011A000004008BF6FF0004070474FF000007047EC
:1011B00053B94AB9002908BF00281CBF4FF0FF31BE
:1011C0004FF0FF3000F068B9ADF1080C6DE904CEC6
:1011D00000F006F8DDF804E0DDE9022304B0704712
:1011E0002DE9F047089D0C46002B4ED194468C45C6
:1011F0008646B2FA82F262D94AB1C2F12003914026
:1012000020FA03F30CFA02FC194300FA02FE4FEA3B
:101210001C47B1FBF7F407FB14111FFA8CF64FEAD9
:101220001E4343EA014304FB06F199420AD91CEB31
:10123000030304F1FF3080F01081994240F20D81E8
:10124000023C6344591AB1FBF7F007FB101100FB95
:1012500006F61FFA8EF343EA01439E420AD91CEBBD
:10126000030300F1FF3180F0FA809E4240F2F780E4
:101270006344023800219B1B40EA04401DB1D34067
:101280000022C5E90032BDE8F0878B4205D90DB1D7
:10129000C5E9000100210846F5E7B3FA83F100290A
:1012A00046D1A34202D39042C0F0EE80861A64EB8E
:1012B00003030120002DE6D0C5E90063E3E7002A1F
:1012C00040F08F80A1EB0C0401214FEA1C481FFA6B
:1012D0008CF7B4FBF8F608FB164407FB06F04FEA60
:1012E0001E4343EA0443984208D91CEB030306F16A
:1012F000FF3402D2984200F2CB8026461C1AB4FB7F
:10130000F8F008FB104400FB07F71FFA8EF343EADE
:1013100004439F4208D91CEB030300F1FF3402D2BF
:101320009F4200F2AE802046DB1B40EA0640A5E764
:10133000C1F120078B4022FA07FC4CEA030C24FA87
:1013400007F64FEA1C49B6FBF9F81FFA8CFE09FBB9
:10135000186620FA07F38C4000FA01FA08FB0EF039
:101360001C43230C43EA0643984202FA01F20AD9CD
:101370001CEB030308F1FF3680F0818098427ED990
:10138000A8F1020863441E1AB6FBF9F309FB1366C1
:1013900003FB0EFEA4B244EA0644A64508D91CEBA2
:1013A000040403F1FF3066D2A64564D9023B6444CD
:1013B00043EA0840A0FB0283A4EB0E049C42C6460D
:1013C0001E4650D34DD055B1BAEB0E0364EB060464
:1013D00004FA07F7CB401F43CC40C5E90074002155
:1013E00051E70CFA02FCC2F12003D9404FEA1C4835
:1013F00020FA03F300FA02FEB1FBF8F008FB10112B
:1014000094401C431FFA8CF7230C43EA014300FB72
:1014100007F1994208D91CEB030300F1FF362CD2E7
:1014200099422AD9023863445B1AB3FBF8F108FBEE
:101430001133A4B244EA034401FB07F3A34208D9E1
:101440001CEB040401F1FF3613D2A34211D9023977
:101450006444E41A41EA00413BE70446F2E60846E8
:1014600008E7C245AFD2B8EB020E63EB0C060138B9
:10147000A9E73146EDE703469AE73046D4E7B046A0
:1014800081E7634402384FE706462346084611E7E2
:10149000023E634432E700BF704700BF034613F8C3
:1014A000012B002AFBD1181A013870474FEA410C72
:1014B0007FEA6C5C02D150EA013C0AD14FEA430C4E
:1014C0007FEA6C5C02D152EA033C02D14FF000008B
:1014D00070474FF0010070474FEA410212F50012C9
:1014E00015D211D56FF47873B3EB625212D94FEA6B
:1014F000C12343F0004343EA505311F0004F23FA55
:1015000002F018BF404270474FF00000704750EAA9
:10151000013005D111F0004008BF6FF00040704766
:101520004FF00000704700BF4FEA40024FEA41030E
:101530007FEA226C02D15FEA402C08D17FEA236C5B
:1015400002D15FEA412C02D14FF0000070474FF00A
:101550000100704710B500F019FE064C204602F05D
:10156000FBF9204602F0C4F84FF0FF31204601F0AD
:1015700015FF10BDC807002008B5024801F0D0FFD4
:1015800080B208BDC807002008B5FFF7F5FFFFF7D8
:10159000CFFB0649FFF7D4FC0549FFF71DFC0549C1
:1015A000FFF7CEFC0449FFF717FC08BD00F07F45AC
:1015B00033335340621048409A9949412DE9F04F26
:1015C00083B005468A46904699469DF8306010469D
:1015D0001946FFF783FAC0B21A4FA7FB00235B0935
:1015E0004FF0640B0BFB1300C4B20022164B4046B5
:1015F0004946FEF7D9FFFFF771FA80B2A7FB003723
:101600007F090BFB1700C7B2009602232246514602
:10161000284600F03BFDA81933460C4A5146C0B29B
:1016200000F07CFD06F0FE0303EB5603E81800967D
:1016300002233A465146C0B200F028FD03B0BDE88F
:10164000F08F00BF1F85EB5100005940D8E400081F
:1016500008B5012006F029F9014B186008BD00BF4C
:10166000C407002030B583B004460D464FF0FF316B
:101670000D4B186806F039FA012803D000242046E3
:1016800003B030BD01AB2A462146084802F03EFBBC
:10169000B0FA80F4640900231A461946024800682B
:1016A00006F033F8EBE700BFC4070020F80700207E
:1016B00008B50021034802F053FC00B908BD012021
:1016C000FCE700BFF807002038B504460D464FF090
:1016D000FF310D4B186806F008FA012802D00024EB
:1016E000204638BD2B4622460021084802F083FBE5
:1016F000B0FA80F4640900231A46194602480068CB
:1017000006F003F8ECE700BFC4070020F80700204C
:1017100008B50421074805F079F80421064805F0CA
:1017200075F80421054805F071F80421044805F016
:101730006DF808BD640A00201C0A0020D4090020AE
:101740008C090020013803281FD8DFE800F00209C7
:1017500010170F4B1B68586A00B200225A6270477C
:101760000C4B1B68586A00B200225A6270470A4B41
:101770001B68586A00B200225A627047074B1B6808
:10178000586A00B200225A6270470020704700BFBA
:10179000640A0020D40900208C0900201C0A0020C3
:1017A00038B50446084D01222021284603F065F88B
:1017B000204606F08DFE00222021284603F05DF829
:1017C000204606F085FE38BD0010014008B50F4BDD
:1017D0001B78012B16D0642000F05AF804210C4825
:1017E00003F044F868B90421094803F03FF80028E1
:1017F000F9D000222021074803F03FF8034B0022D4
:101800001A7008BD6420FFF7CBFFE4E70100002059
:10181000001401400010014010B50446FF2924D0F7
:1018200000224FF40051174803F027F8FF2C03D192
:10183000154B1B78012B1FD000222021114803F0EB
:101840001CF80421114803F011F868B904210F486D
:1018500003F00CF80028F9D000222021094803F0F9
:101860000CF8094B00221A7010BD01224FF40051F0
:10187000044803F002F8D9E701222021014802F0D0
:10188000FCFFDEE7001001400000002000140140D2
:1018900038B50446094D01224FF40051284602F0A4
:1018A000ECFF204606F014FE00224FF400512846BB
:1018B00002F0E3FF204606F00BFE38BD00100140A9
:1018C00008B500224FF48051014802F0D6FF08BD50
:1018D000000C014008B501224FF48051014802F08C
:1018E000CCFF08BD000C014000B583B07F238DF80C
:1018F00004308DF80500FFF7E3FF0A23022201A957
:10190000034804F048F8FFF7E5FF03B05DF804FB77
:10191000A008002070B582B014461D468DF807104F
:10192000FFF7E2FFFFF7CCFF094E4FF47A73012275
:101930000DF10701304604F02EF84FF47A732A4671
:101940002146304604F027F8FFF7C4FF02B070BD0F
:10195000A008002000B583B08DF804108DF8052094
:10196000FFF7C2FFFFF7ACFF4FF47A73022201A921
:10197000034804F010F8FFF7ADFF03B05DF804FB77
:10198000A008002038B505460C460C220321302063
:10199000FFF7E0FF2A4604213020FFF7DBFF224655
:1019A00006213020FFF7D6FF812205213020FFF7E6
:1019B000D1FF38BD10B582B061F07F018DF80610FF
:1019C000FFF792FFFFF77CFF0B4C4FF47A73012275
:1019D0000DF10601204603F0DEFF4FF47A73012279
:1019E0000DF10701204604F0D4F9FFF773FF9DF8CD
:1019F000070002B010BD00BFA008002010B50446CB
:101A00008C2203213020FFF7A5FF2246042130203D
:101A1000FFF7A0FF812205213020FFF79BFF012067
:101A200006F056FD3B210020FFF7C4FF10BD38B57E
:101A3000044633210020FFF7BDFF05463421002076
:101A4000FFF7B8FF40EA0520208035210020FFF78E
:101A5000B1FF054636210020FFF7ACFF40EA052024
:101A6000608037210020FFF7A5FF054638210020C0
:101A7000FFF7A0FF40EA0520A08038BD10B588B070
:101A800000240394049405940194ADF8084012E0F6
:101A900006A8FFF7CCFFBDF91820039B134403935E
:101AA000BDF91A20049B13440493BDF91C20059B27
:101AB000134405930134632CEADD039B1E4880FB2D
:101AC0000312D917C1EB62110391049B80FB03241D
:101AD000DA17C2EB64120492059B80FB0340DB170C
:101AE000C3EB60130593494200291FDB881089125C
:101AF0008DF804108DF805005242002A18DB911071
:101B000092128DF806208DF807105B42002B11DB36
:101B10009A109B128DF808308DF80920062301AA2F
:101B200003212020FFF7F6FE08B010BD0331DDE7EA
:101B30000332E4E70333EBE71F85EB5108B580225E
:101B400006210020FFF706FF642006F0C1FC0122F9
:101B500006210020FFF7FEFE002207211046FFF7B6
:101B6000F9FE042200212020FFF7F4FE00221021BC
:101B70002020FFF7EFFE0A2211212020FFF7EAFEC6
:101B8000FFF77CFF1F2201212020FFF7E3FE002248
:101B900002212020FFF7DEFE1D2214212020FFF766
:101BA000D9FE002215212020FFF7D4FE08BD38B54C
:101BB00004462D210020FFF7FDFE05462E210020C2
:101BC000FFF7F8FE40EA052020802F210020FFF7D4
:101BD000F1FE054630210020FFF7ECFE40EA05202B
:101BE000608031210020FFF7E5FE0546322100200C
:101BF000FFF7E0FE40EA0520A08038BD00000000AD
:101C000030B585B005460C4602A8FFF7D0FF684600
:101C1000FFF70DFF0A2006F05BFCBDF90800FEF798
:101C200059FC0022224BFEF7BFFCFEF777FF28602D
:101C3000BDF90A00FEF74EFC00221D4BFEF7B4FC76
:101C4000FEF76CFF6860BDF90C00FEF743FC002254
:101C5000174BFEF7A9FCFEF761FFA860BDF9000075
:101C6000FEF738FC10A3D3E90023FEF7C7FDFEF70B
:101C700055FF2060BDF90200FEF72CFC0AA3D3E952
:101C80000023FEF7BBFDFEF749FF6060BDF90400CD
:101C9000FEF720FC04A3D3E90023FEF7AFFDFEF717
:101CA0003DFFA06005B030BD666666666666304082
:101CB0000000303F08B503210020FFF77BFE40F015
:101CC0002202D2B203210020FFF744FE642006F076
:101CD000FFFB01213020FFF76DFE40F00702D2B27A
:101CE00001213020FFF736FE01213220FFF74AFEA6
:101CF000642006F0EDFB08213120FFF743FE08BD0C
:101D00002DE9F04707461020FFF778FE08B9BDE837
:101D1000F0871220FFF772FE81461120FFF76EFE5A
:101D200005461420FFF76AFE82461320FFF766FE81
:101D300006461620FFF762FE80461520FFF75EFE7E
:101D400004461820FFF75AFE10F0080F0AD146EAA1
:101D50000A267E8045EA09253D8044EA0824BC80A5
:101D60000120D4E70020D2E7F0B583B004466846EE
:101D7000FFF7C6FF08B903B0F0BDBDF90000FEF7DC
:101D8000A9FB25A3D3E90023FEF70EFCFEF7C6FE50
:101D900006462060BDF90200FEF79CFB1EA3D3E9B6
:101DA0000023FEF701FCFEF7B9FE05466060BDF9B1
:101DB0000400FEF78FFB18A3D3E90023FEF7F4FB22
:101DC000FEF7ACFE0746A06031463046FFF704F848
:101DD000044629462846FEF7FFFF01462046FEF747
:101DE000F3FE044639463846FEF7F6FF0146204624
:101DF000FEF7EAFE0CF07CFA04460949FFF78AF97F
:101E000030B908492046FFF7A3F918B90120B2E715
:101E10000020B0E70020AEE7333333333333C33F22
:101E20000000A0410000704210B5114C0021204676
:101E300004F072FC0C21204604F06EFC04212046C4
:101E400004F05AFD0821204604F056FD094C0021FB
:101E5000204604F061FC0421204604F05DFC0821CA
:101E6000204604F059FC0C21204604F055FC10BD1E
:101E7000AC0A00204409002010B504460021FFF7F9
:101E80005DF968B124F000400D49FFF759F80D499C
:101E9000FEF7A2FF0B49FEF797FEFFF763F910BDAF
:101EA00024F000400649FFF74BF80649FEF794FF7F
:101EB0000449FEF789FEFFF755F94042EFE700BFFE
:101EC0000000C8420000E14410B50446431EDBB2E6
:101ED000032B10D80846FFF7CFFF013C032C0AD88C
:101EE000DFE804F00211202F002805DD1C4B1B68E1
:101EF000986300225A6310BD194B1B6800229A6335
:101F000040425863F7E7002805DD154B1B6818644D
:101F10000022DA63EFE7124B1B6800221A6440428A
:101F2000D863E8E7002805DD0E4B1B681864002223
:101F30005A63E0E70B4B1B6800221A644042586367
:101F4000D9E7002805DD074B1B6898630022DA6398
:101F5000D1E7044B1B6800229A634042D863CAE76A
:101F600044090020AC0A00200246012002E002FBE6
:101F700000F019464B1EDBB20029F8D17047000073
:101F800000B587B08DF817004FF4807302930123DA
:101F900001930DF11702009200227821024802F00D
:101FA000F5FE07B05DF804FB4C08002000B587B0D3
:101FB0008DF817004FF480730293012301930DF104
:101FC0001702009240227821024802F0DFFE07B09B
:101FD0005DF804FB4C08002010B50446A1F1500048
:101FE000C0B2FFF7CDFF200940F01000FFF7C8FF97
:101FF00004F00F00FFF7C4FF10BD0000F8B507465E
:102000000E46203AD5B210F0800F07D1102B09D020
:1020100031463846FFF7E0FF002430E00136F6B2E3
:102020000027F3E731463846FFF7D6FF002407E0E4
:1020300004EB0513134AD05CFFF7B8FF0134E4B298
:10204000072CF5D9711CC9B23846FFF7C5FF00242B
:1020500008E004EB051308330A4AD05CFFF7A6FF3B
:102060000134E4B2072CF4D90BE005EB4502064B32
:1020700003EB4203185DFFF799FF0134E4B2052C2E
:10208000F3D9F8BDDCE40008CCEA00082DE9F047FC
:102090008246894690461D469DF8206000273C46B2
:1020A00019E0700804FB00F0C0B25044334620220F
:1020B0004946C0B2FFF7A2FF0BE0700804FB00F036
:1020C000C0B2303250443346D2B24946C0B2FFF7B4
:1020D00095FF0134E4B2AC421CD2291BC9B20139CC
:1020E000C9B20A20FFF740FFB8FBF0F00A4BA3FB90
:1020F000003C4FEADC0C0CEB8C0CA0EB4C0C5FFAB8
:102100008CF2002FD9D16B1E9C42D6DA002AC8D09F
:102110000127D2E7BDE8F087CDCCCCCC2DE9F0414A
:1021200004460E4617469846002501E00135EDB2FB
:102130007A5D62B1434631462046FFF75FFF0834BF
:10214000E4B2782CF2D90236F6B20024EEE7BDE80C
:10215000F08138B5002509E00020FFF727FF0134A2
:10216000E4B214F0800FF7D00135EDB2032D0CD896
:10217000A5F15000C0B2FFF703FF0020FFF700FFFA
:102180001020FFF7FDFE0024EBE738BD10B500245A
:1021900005E0074B185DFFF7F3FE0134E4B2152CA0
:1021A000F7D9FFF7D6FF00210846FFF715FF10BD4E
:1021B0000400002070B586B005460C46002120467C
:1021C000FEF7A8FFA8B900262046FEF795F90246BB
:1021D0000B460B4901A8304407F010FC01A8FFF79B
:1021E0005DF9642382B201A9284604F01FFD06B000
:1021F00070BD2D238DF8043004F100440126E3E77F
:10220000F4EC000800B585B000230193029303931A
:102210001148124A026083600122027303754FF471
:102220006021C1614360026101F002FB68B90E23C5
:102230000193012302930723039301A9064801F0A8
:1022400073F928B905B05DF804FB00F0FFFAEEE77A
:1022500000F0FCFAF6E700BFC807002000240140A8
:1022600000B587B00023029303930493059302689B
:10227000114B9A4202D007B05DF804FB03F56C43A2
:102280009A6942F400729A619A6902F400720092AB
:10229000009A9A6942F010029A619B6903F0100358
:1022A0000193019B102302930323039302A9034884
:1022B00002F0C0F9DFE700BF002401400010014038
:1022C00010B51A481A4B03600C2343600023836047
:1022D0004FF08072C2604FF4803202614FF40012FE
:1022E00042610376012242768376C2760377437792
:1022F00001F0B2FBA0B90D4C204601F0D9FC0D490C
:1023000000234B610B604B608B60CB600122CA6184
:102310008B610B610A62204601F044FC18B910BDC4
:1023200000F094FAE7E700F091FAF8E7F8070020E8
:10233000006400402008002010B586B000230293FE
:1023400003930493059302681E4B9A4201D006B092
:1023500010BD03F5D633DA6942F00072DA61DA694A
:1023600002F000720092009A9A6942F008029A61A3
:102370009B6903F008030193019B4FF48073029360
:10238000114C02A9204602F055F94FF40073029354
:10239000022303930323059302A9204602F04AF97E
:1023A0000A4A536823F4C04343F0E06343F4804394
:1023B000536000220521142001F05CFF142001F07D
:1023C00069FFC4E700640040000C014000000140C8
:1023D00000B583B00A4B5A6942F001025A615B6949
:1023E00003F001030193019B002205210E2001F05F
:1023F00041FF0E2001F04EFF03B05DF804FB00BF6B
:102400000010024010B582B012E0FFF7DFF920465D
:1024100006F004FD2046FEF76FF802460B46102139
:10242000009102215820FFF7C9F8C82006F050F8A3
:10243000FFF7AAF804460349FEF76CFE0028E4D132
:10244000E5E700BF0000184110B59AB0FFF776FB32
:10245000FFF730FC00230A930B930C930D930E931C
:102460000F931093174A0A92174A0B924FF07E521D
:10247000069200220792089209920393049305930F
:1024800005F0C6FE029014AC214617A8FFF7B8FB72
:1024900011A8FFF769FC214617A806F0A3FC052048
:1024A00006F016F8009417AB06AA08490AA807F028
:1024B0003DF806A806F080FC322102A805F0B6FF20
:1024C000E1E700BF9A99993E0AD7A33B0AD7233C7C
:1024D00030B58FB000250795089509950A950B959D
:1024E0000C950D9505950695039504952C4606E0EB
:1024F000039B029301245DBB0A2005F0E9FFFFF76F
:10250000D7F80028F8D005A907A8FFF7DDF803A938
:1025100005A806F0A7FC079B40F212529342E7D0B1
:1025200040F2135293420CD040F21152934202D027
:10253000002CE1D0DFE7039B0093049B019301256E
:10254000F6E79DF815109DF81400FFF765F9EFE721
:1025500001224FF40051094802F08FF9084C00990C
:102560002046FFF727FE01992046FFF723FE684625
:1025700006F08EFC00242546BEE700BF0010014097
:10258000380B002000B585B005F042FE009001AA8E
:1025900002A903A806F010FF019A0299039806F019
:1025A0004BFC0A21684605F041FFF0E700B58DB00D
:1025B0000023089309930A930B93049305930693BE
:1025C000079301A806F070FC08AB039A02990198E2
:1025D00006F076FC04A908A806F0AAFC04A806F0F8
:1025E0003BFFEEE7704708B5FFF7D0FDFEF7B2FFFF
:1025F000FFF71AFCFFF78CF806F0B8FEFFF728F893
:1026000006F03AFC08BD000030B583B0FFF7EBFFE1
:10261000174A0021174804F0B1FB174B186000243B
:1026200001941825009523464FF4806213491448FD
:1026300005F05CFD0194009523464FF400721149AA
:10264000114805F053FD0194009523464FF40072A4
:102650000E490F4805F04AFD0194009523464FF4BA
:1026600080720C490C4805F041FD03B030BD00BF3D
:1026700020ED00080524000848080020FCEC0008B4
:102680004924000800ED0008D124000804ED0008EA
:102690008525000808ED0008AD2500082DE9F0416A
:1026A00088B000240494059406940794354B9A69E5
:1026B00042F010029A619A6902F010020092009AA8
:1026C0009A6942F020029A619A6902F0200201920E
:1026D000019A9A6942F004029A619A6902F004022E
:1026E0000292029A9A6942F008029A619B6903F089
:1026F00008030393039B244E224642F222013046F4
:1027000002F0BBF801220C21304602F0B6F8DFF8E7
:102710007C8001224FF48051404602F0AEF842F234
:10272000220304930125059506940227079704A91F
:10273000304601F07FFF04950594069704A93046C2
:1027400001F078FF0C230493112305930695079756
:1027500004A9304601F06EFF4FF4805304930595B1
:1027600006940323079304A9404601F063FF042362
:1027700004930594069504A9054801F05BFF08B091
:10278000BDE8F0810010024000100140000C014043
:102790000014014008B50B480B4B03600B4B436022
:1027A00000238360C3604FF4804202614361836110
:1027B000C361036202F00CFA00B908BD00F046F8EC
:1027C000FBE700BF4C08002000580040A086010035
:1027D00010B586B000230293039304930593026817
:1027E000114B9A4201D006B010BD104CA36943F0C2
:1027F0000803A361A36903F008030093009B4FF44F
:1028000040630293122303930323059302A908480C
:1028100001F010FFE36943F48003E361E36903F42B
:1028200080030193019BDEE7005800400010024046
:10283000000C014008B50268034B9A4200D008BD65
:1028400000F09AFDFBE700BF0010004072B6FEE703
:1028500000B597B0282200210CA807F032F9002318
:102860000793089309930A930B930193029303939D
:1028700004930593069301220C924FF480330D9339
:1028800010920222139214934FF4E01315930CA8A4
:1028900002F044FBC8B90F230793022108910023DB
:1028A00009934FF480620A920B9307A802F068FD27
:1028B00068B9022301934FF40043039301A802F087
:1028C00059FE30B917B05DF804FBFFF7BFFFFFF703
:1028D000BDFFFFF7BBFF08B500F03CFDFFF7B8FFF9
:1028E000FFF7DCFEFFF774FDFFF754FF00F07CFB01
:1028F00000F00AFC00F0A0F900F096FC00F066F988
:1029000000F0D0F900F006FAFFF77CFC00F00AF8BE
:10291000FFF7D6FC04F0EAF9FFF776FE04F008FAB8
:10292000FEE7000008B50D480D4B03604FF48273BD
:10293000436000238360C360036143614FF400720E
:102940008261C3610362436283620A23C36202F04D
:10295000C7FF00B908BDFFF779FFFBE7A00800201B
:102960000038004010B586B000230293039304930F
:1029700005930268174B9A4201D006B010BD03F5CB
:10298000EC33DA6942F48042DA61DA6902F48042B7
:102990000092009A9A6942F008029A619B6903F0DA
:1029A00008030193019B4FF42043029302230393F6
:1029B00003230593084C02A9204601F03BFE4FF487
:1029C0008043029300230393049302A9204601F05D
:1029D00031FED2E700380040000C014000B583B062
:1029E000114B9A6942F001029A619A6902F0010260
:1029F0000092009ADA6942F08052DA61DB6903F0F2
:102A000080530193019B00220F216FF0010001F020
:102A100031FC064A536823F0E06343F000735360CF
:102A200003B05DF804FB00BF00100240000001404D
:102A300030B589B00446214BDA6942F01002DA6100
:102A4000DB6903F010030193019B02A903A802F0C4
:102A500073FD069BCBB902F04FFD0346184AA2FB5B
:102A600003239B0C013B1748174A026040F2E732F0
:102A7000C2604360002303618360836103F058FCFC
:102A8000054630B1284609B030BD02F035FD43009F
:102A9000E4E70C4803F002FB05460028F2D136209B
:102AA00001F0F8FB0F2C01D90125EBE700222146AC
:102AB000362001F0DFFB054B1C60E3E7001002400D
:102AC00083DE1B43F8080020001000402400002093
:102AD000FEE7FEE7FEE7FEE7FEE7704708B50248BF
:102AE00001F032FC08BD00BFF40A002008B502481E
:102AF00001F055FA08BD00BFF807002008B50248EC
:102B000003F00DFB08BD00BFF8080020012070474E
:102B100008B507F051F8162303604FF0FF3008BDE9
:102B200008B54FF0FF31FFF7F3FFFEE770B50C4635
:102B30001646002506E0AFF30080214601F8010BA0
:102B400001350C46B542F6DB304670BD70B50C461B
:102B50001646002504E014F8010BAFF300800135A0
:102B6000B542F8DB304670BD4FF0FF3070474FF490
:102B700000534B60002070470120704700207047D1
:102B800010B503460C4A0D490D48006840B10C4889
:102B900000680344521A934206D8094A136010BDD4
:102BA0000748084C0460F2E707F006F80C230360BE
:102BB0004FF0FF30F3E700BF00C00020000400002A
:102BC00040090020206D00207047000000B58DB046
:102BD0002422002103A806F074FF0023019302932E
:102BE00014484FF080420260436083604FF6FF72EA
:102BF000C260036180238361032303930122059252
:102C00000F23079309920B9303A903F0E9FB50B933
:102C100000230193029301A9064803F0E1FE28B9BD
:102C20000DB05DF804FBFFF711FEF1E7FFF70EFEB4
:102C3000F6E700BF640A002000B58DB02422002111
:102C400003A806F03EFF0023019302931348144AA1
:102C50000260436083604FF6FF72C26003618023AD
:102C6000836103230393012205920F2307930992A3
:102C70000B9303A903F0B4FB50B900230193029313
:102C800001A9064803F0ACFE28B90DB05DF804FBBD
:102C9000FFF7DCFDF1E7FFF7D9FDF6E71C0A00209E
:102CA0000004004000B58DB02422002103A806F0E6
:102CB00008FF0023019302931448154A0260436001
:102CC00083604FF6FF72C260036180238361032338
:102CD000039302230493012205920F230793099281
:102CE0000B9303A903F07CFB50B9002301930293DB
:102CF00001A9064803F074FE28B90DB05DF804FB85
:102D0000FFF7A4FDF1E7FFF7A1FDF6E7D4090020E6
:102D10000008004000B58DB02422002103A806F071
:102D2000D0FE0023019302931448154A02604360C9
:102D300083604FF6FF72C2600361802383610323C7
:102D4000039302230493012205920F230793099210
:102D50000B9303A903F044FB50B9002301930293A2
:102D600001A9064803F03CFE28B90DB05DF804FB4C
:102D7000FFF76CFDF1E7FFF769FDF6E78C0900202E
:102D8000000C004082B003680E4A934204D00E4A01
:102D900093420CD002B070470C4B9A6942F4006227
:102DA0009A619B6903F400630093009BF2E7074B71
:102DB0009A6942F400529A619B6903F400530193AB
:102DC000019BE7E7002C0140003401400010024065
:102DD00000B58FB000230A930B930C930D930368F7
:102DE000B3F1804F0BD0484A93423FD0474A9342B9
:102DF00056D0474A93426DD00FB05DF804FB03F5FF
:102E00000433DA6942F00102DA61DA6902F00102A0
:102E10000192019A9A6942F004029A619A6902F059
:102E200004020292029A9A6942F008029A619B692E
:102E300003F008030393039B4FF400430A930AA98A
:102E4000344801F0F7FB08230A9300230B930C93FB
:102E50000AA9314801F0EEFB304A536823F440736D
:102E600043F0E06343F480735360C5E72C4BDA69A9
:102E700042F00202DA61DA6902F002020492049A74
:102E80009A6942F004029A619B6903F00403059376
:102E9000059BC0230A930AA91E4801F0CBFBABE7B0
:102EA0001F4BDA6942F00402DA61DA6902F00402C7
:102EB0000692069A9A6942F008029A619B6903F0A9
:102EC00008030793079BC0230A930AA9124801F03D
:102ED000B1FB91E7124BDA6942F00802DA61DA6974
:102EE00002F008020892089A9A6942F004029A6174
:102EF0009B6903F004030993099B03230A930AA91E
:102F0000044801F097FB77E7000400400008004008
:102F1000000C004000080140000C0140000001408E
:102F20000010024010B588B0002304930593069367
:102F300007930368254A934204D0254A934230D030
:102F400008B010BD234B9A6942F008029A619A6951
:102F500002F008020192019A9A6942F004029A6111
:102F60009B6903F004030293029B0323049302244E
:102F70000594079404A9184801F05CFB4FF4106312
:102F800004930594079404A9144801F053FB144AD0
:102F9000536823F0C00343F0E06343F04003536001
:102FA000CEE70C4B9A6942F010029A619B6903F0DC
:102FB00010030393039B4FF4707304930223059350
:102FC000079304A9074801F035FBB9E7002C01403D
:102FD0000034014000100240000C01400008014094
:102FE000000001400010014010B596B0002412947A
:102FF0001394149415941094119409940A940B94B6
:103000000C940D940E940F942022214601A806F0F2
:1030100058FD3B483B4B03604460846040F60F63BF
:10302000C360046144618023836103F081F9002857
:103030004BD14FF48053129312A9314803F0DEFABA
:10304000002845D12E4803F09FF9002843D10023E2
:103050001093119310A92A4803F0C2FC00283DD117
:103060006023099300220A920B920C920D920E9209
:103070000F9209A9224803F047FA002831D104220F
:1030800009A91F4803F040FA70BB082209A91C488F
:1030900003F03AFA58BB0C2209A9194803F034FA94
:1030A00040BB0023019302930393049305934FF4D1
:1030B00000520692089301A9114803F0CFFCE0B931
:1030C0000F48FFF72FFF16B010BDFFF7BFFBB0E7AB
:1030D000FFF7BCFBB6E7FFF7B9FBB8E7FFF7B6FBB6
:1030E000BEE7FFF7B3FBCAE7FFF7B0FBCDE7FFF79B
:1030F000ADFBD0E7FFF7AAFBD3E7FFF7A7FBDFE7BE
:10310000AC0A0020002C014010B596B000241294A7
:103110001394149415941094119409940A940B9494
:103120000C940D940E940F942022214601A806F0D1
:10313000C8FC3B483B4B03604460846040F60F632F
:10314000C360046144618023836103F0F1F80028C7
:103150004BD14FF48053129312A9314803F04EFA29
:10316000002845D12E4803F00FF9002843D1002351
:103170001093119310A92A4803F032FC00283DD186
:103180006023099300220A920B920C920D920E92E8
:103190000F9209A9224803F0B7F9002831D104227F
:1031A00009A91F4803F0B0F970BB082209A91C48FF
:1031B00003F0AAF958BB0C2209A9194803F0A4F995
:1031C00040BB0023019302930393049305934FF4B0
:1031D00000520692089301A9114803F03FFCE0B9A0
:1031E0000F48FFF79FFE16B010BDFFF72FFBB0E7AB
:1031F000FFF72CFBB6E7FFF729FBB8E7FFF726FB45
:10320000BEE7FFF723FBCAE7FFF720FBCDE7FFF799
:103210001DFBD0E7FFF71AFBD3E7FFF717FBDFE74C
:10322000440900200034014008B50A480A4B0360F5
:103230004FF4E133436000238360C36003610C22D9
:1032400042618361C36103F0C1FC00B908BDFFF7AF
:10325000FDFAFBE7380B00200038014070B586B05E
:10326000002302930393049305930268224B9A422E
:1032700001D006B070BD044603F558439A6942F484
:1032800080429A619A6902F480420092009A9A6997
:1032900042F004029A619B6903F004030193019BCD
:1032A0004FF4007302930223039303230593134EF9
:1032B00002A9304601F0BEF94FF480630293002565
:1032C0000395049502A9304601F0B4F90C480D4B62
:1032D00003601023436085608023C36005614561FE
:1032E0008561C56100F0E4FF18B9054BA3635C621A
:1032F000BFE7FFF7ABFAF8E70038014000080140EC
:10330000F40A002044000240FFF75EFC0B480C4921
:103310000C4A002302E0D458C4500433C4188C4231
:10332000F9D3094A094C002301E013600432A24298
:10333000FBD306F047FCFFF7CEFA704700000020F1
:10334000A80700203CF10008A8070020206D0020FD
:10335000FEE7000008B5074A136843F01003136046
:10336000032000F075FF0F20FFF762FBFFF736FB2D
:10337000002008BD00200240034A1168034B1B785F
:103380000B441360704700BF800B0020200000201A
:10339000014B1868704700BF800B0020F0B583B068
:1033A00005460C4600230193FFF7F2FF2B689A684D
:1033B00012F4807F23D107465A6812F4807F03D12C
:1033C000DB6A13F4700F29D0504B1E68022002F004
:1033D0005DF9B6FBF0F62B6819694D4A114236D1FA
:1033E000D96802F15C42114231D11969494A11424E
:1033F00040D1DA68484B1A423ED0292341E0AB6AFB
:1034000043F02003AB62002385F82430012003B091
:10341000F0BD2B681B6813F0020F0FD02B681B68E0
:1034200013F0020F4FD1B4F1FF3FF7D0002CF0D0D2
:10343000FFF7AEFFC31BA342F0D9EAE7AB6A43F044
:103440000403AB62002385F824300320DFE7196909
:10345000304A114204D1D96802F16E4211420DD0B6
:1034600019692E4A0A405AB9DA682C4B13405BB1ED
:10347000FC2306E0292304E0142302E0542300E0A7
:10348000FC2303FB06F607E05423FAE7019BB34253
:1034900010D3019B01330193019BB34213D2B4F1CA
:1034A000FF3FF6D0002CF1D0FFF772FFC01BA04207
:1034B000EFD9EBE7AB6A43F00403AB62002385F876
:1034C00024300320A3E72B686FF012021A60AB6A66
:1034D00043F40073AB622B689B6803F46023B3F57D
:1034E000602F01D0002092E7287B60B9AB6A23F4FB
:1034F0008073AB62AB6A13F4805F88D1AB6A43F030
:103500000103AB6283E7002081E700BF1C000020BD
:103510002449922492244912922449004992240079
:103520000368D86C7047000030B482B0002201926A
:1035300090F82420012A00F08F800346012280F8B1
:1035400024204A68062A2DD80468606B02EB8202A8
:10355000053A4FF01F0C0CFA02FC20EA0C000D6833
:1035600005FA02F2024362630A68092A38D91C6824
:10357000E06802EB42021E3A4FF0070C0CFA02FC24
:1035800020EA0C008D6805FA02F20243E2600A6844
:10359000103A012A34D90020002283F8242002B0F6
:1035A00030BC70470C2A0DD80568286B02EB8202EC
:1035B000233A1F24944020EA04000C6894402043DE
:1035C0002863D1E70568E86A02EB8202413A1F24CA
:1035D000944020EA04000C6894402043E862C3E76A
:1035E0001C68206902EB42024FF0070C0CFA02FC47
:1035F00020EA0C008D6805FA02F202432261C6E758
:103600001A681648824205D09A6A42F020029A62ED
:103610000120C1E7906810F4000F1BD1906840F4BE
:10362000000090600A68102A01D00020B4E70C4A1C
:1036300012680C49A1FB0212920C02EB82025200AA
:10364000019202E0019A013A0192019A002AF9D10D
:103650000020A1E700209FE70220A0E7002401400E
:103660001C00002083DE1B4330B583B00023019390
:1036700003689A6812F0010F33D104469A6842F049
:1036800001029A60184B1B68184AA2FB03239B0C8B
:10369000019302E0019B013B0193019B002BF9D1B7
:1036A000FFF776FE054623689B6813F0010F16D1DD
:1036B000FFF76EFE431B022BF5D923689B6813F0BE
:1036C000010FF0D1A36A43F01003A362E36A43F051
:1036D0000103E362002384F82430012002E000208B
:1036E00000E0002003B030BD1C00002083DE1B433F
:1036F00090F82430012B68D010B50446012380F8DF
:103700002430FFF7B1FF00285BD1A36A23F4407394
:1037100023F0010343F48073A36223682C4A93428D
:1037200027D0A26A22F48012A2625A6812F4806F33
:1037300005D0A26A22F4405242F48052A262A26AE8
:1037400012F4805F2BD0E26A22F00602E2620022CD
:1037500084F824206FF002021A6023689A6802F449
:103760006022B2F5602F1DD09A6842F480129A60F0
:103770002AE0A2F58062526812F4702FD1D0A26ABA
:1037800042F48012A262134A526812F4806FD6D0BB
:10379000A26A22F4405242F48052A262CFE7002291
:1037A000E262D4E70A4A934204D09A6842F4A00243
:1037B0009A6009E0A2F58062526812F4702FD3D1AA
:1037C000F3E7002384F8243010BD0220704700BFC7
:1037D000002801400024014038B503689A6812F0BF
:1037E000010F01D1002038BD04469A6822F0010281
:1037F0009A60FFF7CDFD054623689B6813F0010F23
:1038000013D0FFF7C5FD431B022BF5D923689B6836
:1038100013F0010FF0D0A36A43F01003A362E36A30
:1038200043F00103E3620120DDE70020DBE7000055
:10383000002800F0888070B50446836A002B52D0BF
:103840002046FFF7C9FFA36A13F0100375D10028C3
:1038500073D1A26A22F4885222F0020242F00202DC
:10386000A2626268266839498E4242D0E1690A4301
:10387000217B42EA4102A568B5F5807F02D0012D87
:103880003ED01D4694F814C0BCF1010F3BD07168C6
:1038900021F46941294371602568AE682C493140A3
:1038A0001143A960A168B1F5807F01D0012902D13F
:1038B0002369013B1B052568E96A21F470010B436C
:1038C000EB6223689968234B0B409A422CD0A36A81
:1038D00023F0120343F01003A362E36A43F00103F1
:1038E000E36201202EE0C36280F82430FEF7B8FCCA
:1038F000A6E7E169B1F5402FB9D14FF40021B6E751
:103900004FF48075BEE731B9A169013945EA41310B
:1039100041F40065BBE7A16A41F02001A162E16AC0
:1039200041F00101E162B2E70023E362A36A23F000
:10393000030343F00103A36204E0A36A43F010030E
:10394000A362012070BD0120704700BF003C014010
:10395000FDF7E1FFFE0E1FFF70B582B0002301935B
:1039600090F82430012B72D00446012380F82430D3
:10397000FFF732FF2046FFF777FE054628B1002308
:1039800084F82430284602B070BDA36A23F488531B
:1039900023F0020343F00203A3622E4B1E680220B1
:1039A00001F074FEB6FBF0F67600019602E0019B92
:1039B000013B0193019B002BF9D12268936843F0EE
:1039C00008039360FFF7E4FC064623689A6812F048
:1039D000080F14D0FFF7DCFC801B0A28F5D92368F8
:1039E0009B6813F0080FF0D0A36A23F0120343F092
:1039F0001003A362002384F824300125C2E79A68EB
:103A000042F004029A60FFF7C3FC064623689B68F5
:103A100013F0040F14D0FFF7BBFC801B0A28F5D964
:103A200023689B6813F0040FF0D0A36A23F01203FD
:103A300043F01003A362002384F824300125A1E79A
:103A4000A36A23F0030343F00103A36297E702256F
:103A500098E700BF1C000020002800F0A18038B5C6
:103A6000044690F82030D3B12268136843F0010374
:103A70001360FFF78DFC054623685A6812F0010FAA
:103A800010D1FFF785FC401B0A28F5D9636A43F47F
:103A900000336362052384F82030012038BDFEF72F
:103AA0004BFCE1E71A6822F002021A60FFF770FC93
:103AB000054623685A6812F0020F0DD0FFF768FC24
:103AC000401B0A28F5D9636A43F400336362052377
:103AD00084F820300120E1E7227E012A3DD01A68D7
:103AE00022F080021A60637E012B3BD022681368AB
:103AF00023F040031360A37E012B39D022681368A2
:103B000023F020031360E37E012B37D02268136873
:103B100043F010031360237F012B35D02268136814
:103B200023F008031360637F012B33D022681368EE
:103B300023F004031360A368E2681343226913436C
:103B4000626913436268013A21681343CB61002024
:103B50006062012384F82030A0E71A6842F08002F6
:103B60001A60C0E72268136843F040031360C2E79D
:103B70002268136843F020031360C4E722681368C7
:103B800023F010031360C6E72268136843F00803AC
:103B90001360C8E72268136843F004031360CAE7A0
:103BA00001207047026890F82030013BDBB2012B06
:103BB00005D9436A43F4802343620120704710B55E
:103BC000D2F8003243F00103C2F800324B6903F02F
:103BD0001F03012000FA03F3D2F81C026FEA030C62
:103BE00020EA0300C2F81C02C869C0B9D2F80C026E
:103BF0000CEA0000C2F80C028C884869D1F80CE08D
:103C000044EA0E44483042F830400C884869D1F804
:103C100008E044EA0E44483002EBC0004460C86942
:103C200001281AD0886988BBD2F804020CEA000087
:103C3000C2F80402086978BBD2F814020CEA00004A
:103C4000C2F81402096A01292CD0D2F8003223F0FC
:103C50000103C2F80032002010BDD2F80C02184354
:103C6000C2F80C028C884869D1F800E044EA0E449E
:103C7000483042F830408C894869D1F808E044EA7D
:103C80000E44483002EBC0004460CBE7D2F8040297
:103C90001843C2F80402CDE7D2F814021843C2F860
:103CA0001402CFE7D2F81C120B43C2F81C32CCE747
:103CB00070B5044690F82050EDB2012D06D0436A4D
:103CC00043F4002343620125284670BD022380F897
:103CD00020300268136823F001031360FFF758FBDC
:103CE000064623685B6813F0010F0CD0FFF750FB0A
:103CF000831B0A2BF5D9636A43F4003363620523FF
:103D000084F82030E0E700256562DDE730B590F803
:103D100020C00468A4680CF1FF3C5FFA8CFCBCF185
:103D2000010F62D814F0E05F59D0C4F3016C012494
:103D300004FA0CF41C608B68002B3DD10D68CB6835
:103D4000046843EA45550CF118031B01E55003686C
:103D50000C690CF1180E03EB0E135C600B7D012B4C
:103D600035D0D17993791B0443EA0163517943EA51
:103D7000012314790168234301EB0C11C1F88C3144
:103D8000D17893781B0443EA0163517843EA012315
:103D9000117802680B4302EB0C12C2F888310268FA
:103DA0000CF1180C4FEA0C1C52F80C3043F00103D4
:103DB00042F80C3000201DE04C6843EAC403CC6894
:103DC00023430CF11804240105682B51BFE7036855
:103DD00003EB0E13596841F480715960C1E7436ADF
:103DE00043F400134362012004E0436A43F4802358
:103DF0004362012030BD90F820C00CF1FF3C5FFA17
:103E00008CFCBCF1010F00F2A58030B451B90468FC
:103E1000E46814F0030F10D1436A43F400134362C3
:103E200001207EE00468246914F0030F05D1436A81
:103E300043F400134362012073E0056801F11B04A1
:103E400024012C5904F004049460002C6BD1056803
:103E500001F11B0424012C59640D1460046801F164
:103E60001B0C4FEA0C1C54F80C4004F00204D46004
:103E70000468A444DCF8045015F0080F5BD0082453
:103E80001461046801F11B0C04EB0C146468C4F3A6
:103E900007249461046804EB0C146468240C5461D6
:103EA000026802EB0112D2F8B8211A70026802EB24
:103EB0000112D2F8B821C2F307225A70026802EB4D
:103EC0000112D2F8B821C2F307429A70026802EBDD
:103ED0000112D2F8B821120EDA70026802EB011258
:103EE000D2F8BC211A71026802EB0112D2F8BC218F
:103EF000C2F307225A71026802EB0112D2F8BC2108
:103F0000C2F307429A71026802EB0112D2F8BC2197
:103F1000120EDA71C1B90268D36843F02003D3608E
:103F2000002030BC7047056801F11B0424012C59A6
:103F3000E408546092E701F11B0504EB0514646882
:103F400004F00F0414619CE70268136943F0200336
:103F50001361E5E7436A43F480234362012070471D
:103F600090F82030013BDBB2012B01D900207047D3
:103F700021B90368D86800F0030070470368186926
:103F800000F00300704770477047704770477047F4
:103F900070477047704770477047704770472DE90A
:103FA000F84F054603685C69D3F804809F68D3F82E
:103FB0000CB0D3F810A0D3F8189014F001063BD041
:103FC00017F0010616D001229A6017F0020F08D1EF
:103FD00017F0040F0CD117F0080606D04FF48056E6
:103FE00008E0FFF7D0FF002604E0FFF7CFFF01E075
:103FF0004FF4006617F4807F0DD02B684FF4807269
:104000009A6017F4007F40F0868017F4806F00F00C
:10401000868046F4005617F4803F0DD02B684FF48D
:1040200080329A6017F4003F40F0838017F4802FAD
:1040300000F0838046F4004614F0080F07D01BF010
:10404000100F04D046F400762B681022DA6014F0CA
:10405000040F02D01BF0080F79D114F0020F04D026
:104060002B68DB6813F0030F78D114F0400F07D0F2
:104070001AF0100F04D046F480662B6810221A61E3
:1040800014F0200F02D01AF0080F6BD114F0100FAB
:1040900004D02B681B6913F0030F6AD114F4003F9E
:1040A00002D018F0100F68D114F4803F02D018F03D
:1040B000080F69D114F4004F7AD018F0040F74D0AF
:1040C00014F4807F04D019F0010F01D046F00106EE
:1040D00014F4007F04D019F0020F01D046F002065C
:1040E00014F4806F04D019F0040F01D046F00406D8
:1040F00014F4006F59D019F0700956D0B9F1400F7F
:1041000065D058D8B9F1200F5ED0B9F1300F42D147
:1041100046F0200644E02846FFF736FF7BE717F419
:10412000006F02D046F4804675E72846FFF72FFF60
:1041300071E72846FFF729FF7EE717F4002F02D02A
:1041400046F4803678E72846FFF722FF74E72B68AD
:104150000822DA602846FFF71CFF7EE72846FEF7B4
:1041600041FA82E72B6808221A612846FFF713FFFD
:104170008CE72846FFF70EFF90E72B6810225A6065
:104180002846FFF709FF8FE72B6808225A60284668
:10419000FFF703FF8EE7B9F1100F01D146F00806D3
:1041A0002A68936923F0700393612B6804225A6094
:1041B0009EB9BDE8F88FB9F1500F0BD0B9F1600F7F
:1041C000EED146F48076EBE746F01006E8E746F0DD
:1041D0004006E5E746F08006E2E76B6A33436B6230
:1041E0002846FFF7DBFEE4E7002808DB0901C9B237
:1041F00000F1604000F5614080F80013704700F066
:104200000F000901C9B2014B1954704714ED00E0C9
:1042100000B500F00700C0F1070CBCF1040F28BF87
:104220004FF0040C031D062B0FD9C31E4FF0FF3EA9
:104230000EFA0CF021EA000199400EFA03FE22EA80
:104240000E0241EA02005DF804FB0023EEE70000E5
:10425000074AD36823F4E0631B041B0C000200F43C
:10426000E060034343F0BF6343F40033D36070471F
:1042700000ED00E010B50446054BD868C0F30220FD
:10428000FFF7C6FF01462046FFF7AEFF10BD00BF97
:1042900000ED00E0002807DB00F01F0240090123C9
:1042A0009340024A42F82030704700BF00E100E02E
:1042B00000283AD010B4024600681D4B984229D815
:1042C0001C4B03441C49A1FB03131B099B001364F3
:1042D0001A4BD363022382F82130016821F47F5105
:1042E00021F03001536894682343D4682343146950
:1042F00023435469234394692343D46923430B43E1
:10430000036000209063012382F8213082F82000AE
:1043100010BC70470A4B03440749A1FB03131B0958
:104320009B001364074BD363D4E70120704700BFA1
:1043300007040240F8FFFDBFCDCCCCCC000002400A
:10434000F8FBFDBF0004024038B5C36B1A6804686F
:104350002568016C04238B40134200F09B8015F00C
:10436000040F00F09780236813F0200F03D1236817
:1043700023F00403236003689A4A934246D9783AAB
:10438000934224D01432934228D01432934227D03F
:104390001432934227D01432934227D014329342DE
:1043A00027D01432934227D002F56272934226D06E
:1043B0001432934225D01432934224D014329342C3
:1043C00002D04FF4802203E04FF4804200E0042248
:1043D000854B5A60C36A03B1984738BD4022F7E75E
:1043E0004FF48062F4E74FF48042F1E74FF480220B
:1043F000EEE74FF48002EBE74FF08062E8E704223B
:10440000E6E74022E4E74FF48062E1E7774A93422F
:1044100024D01432934225D01432934224D0143243
:10442000934224D01432934224D01432934224D0A5
:104430001432934224D002F56272934223D0143294
:10444000934222D01432934221D01432934202D0AC
:104450004FF4802203E04FF4804200E00422644BDA
:104460005A60B7E74022FAE74FF48062F7E74FF46B
:104470008042F4E74FF48022F1E74FF48002EEE748
:104480004FF08062EBE70422E9E74022E7E74FF4D0
:104490008062E4E702238B40134200F0AB8015F00A
:1044A000020F00F0A780236813F0200F06D12368C5
:1044B00023F00A032360012380F821300368494A6E
:1044C00093424BD9783A934224D0143293422DD060
:1044D000143293422CD0143293422CD01432934293
:1044E0002CD0143293422CD0143293422CD002F5AB
:1044F000627293422BD0143293422AD014329342E8
:1045000029D01432934202D04FF4003203E04FF42A
:10451000005200E00222344B5A60002380F8203021
:10452000836A002B3FF459AF984756E72022F2E701
:104530004FF40072EFE74FF40052ECE74FF4003213
:10454000E9E74FF40012E6E74FF00072E3E70222DA
:10455000E1E72022DFE74FF40072DCE7234A9342D1
:1045600024D01432934225D01432934224D01432F2
:10457000934224D01432934224D01432934224D054
:104580001432934224D002F56272934223D0143243
:10459000934222D01432934221D01432934202D05B
:1045A0004FF4003203E04FF4005200E00222104BBF
:1045B0005A60B2E72022FAE74FF40072F7E74FF4AF
:1045C0000052F4E74FF40032F1E74FF40012EEE747
:1045D0004FF00072EBE70222E9E72022E7E74FF411
:1045E0000072E4E78000024000040240080002403C
:1045F0000000024008238B4013423FF4EEAE15F05A
:10460000080F3FF4EAAE236823F00E032360026C28
:10461000C16B012303FA02F24A60836380F8213000
:10462000002380F82030036B002B3FF4D6AE984770
:10463000D3E600BF70B582B00024A446ACE0854D3F
:10464000AB4210D007D9844DAB420CD005F5803574
:10465000AB4208D013E0A5F58015AB4203D005F5B9
:104660007025AB4207D18B68002B5FD0012B58D04F
:104670004261082403E0A5F58015AB42F3D0BEF1FA
:10468000FF0F55D806464FEA8C0233680F25954038
:1046900023EA050304FA02F2134333604B6813F074
:1046A000805F77D06D4B9A6942F001029A619B69F5
:1046B00003F001030193019B4FEA9C02951C684B98
:1046C00053F825600CF00305AD000F23AB4026EA3C
:1046D0000306644B984232D003F58063984200F0A1
:1046E000978003F58063984200F0948003F580631F
:1046F000984200F0918003F58063984200F08E802C
:1047000003F58063984218D0062319E0CC68B6E719
:10471000CC680434B3E7CC680834B0E7CC680C3418
:10472000ADE702610824AAE70024A8E70424A6E76D
:10473000061DACF108029200A7E7052300E0002364
:10474000AB4033430232464D45F822304B6813F4F8
:10475000801F65D0444A936843EA0E0393604B6818
:1047600013F4001F62D0404AD36843EA0E03D360BB
:104770004B6813F4003F5FD03B4A536843EA0E0393
:1047800053604B6813F4803F5CD0374A136843EAA8
:104790000E0313600CF1010C0B6833FA0CF257D0C6
:1047A000012202FA0CF203EA020E32EA0303F1D10B
:1047B0004B68122B3FF643AF122B3FF660AF01A5BB
:1047C00055F823F0674600080D4700081747000812
:1047D000294700087F4600087F4600087F460008FA
:1047E0007F4600087F4600087F4600087F46000895
:1047F0007F4600087F4600087F4600087F46000885
:104800007F4600087F460008114700081D47000842
:10481000012395E7022393E7032391E704238FE71E
:10482000114A936823EA0E03936098E70E4AD3680F
:1048300023EA0E03D3609BE70B4A536823EA0E0377
:1048400053609EE7084A136823EA0E031360A1E74A
:1048500002B070BD000022100000311000100240B4
:104860000000014000080140000401408368194233
:1048700001D001207047002070470AB101617047E4
:1048800009040161704703685A6912F4806F01D10D
:10489000002070476FF480625A6100230363202276
:1048A00080F83D2080F83E30026C42F00402026441
:1048B00080F83C30012070472DE9F04106460C4657
:1048C000174698463BE0FEF763FD069BC01A40453D
:1048D00002D8B8F1000F32D1012D18D033689B698E
:1048E00024EA03039BB2B3FA83F35B099F4226D108
:1048F00000233363202286F83D2086F83E30326C58
:1049000042F02002326486F83C30012027E0336810
:104910005B6924EA03039BB2B3FA83F35B09E5E71F
:1049200033685B6924EA030C1FFA8CFCBCFA8CFC2C
:104930004FEA5C1C674511D1B8F1FF3FC3D1C4F306
:104940000745012DECD033689B6924EA030C1FFA5C
:104950008CFCBCFA8CFC4FEA5C1CEBE70020BDE849
:10496000F0812DE9F84305460E469046994653E0FE
:104970001A6842F400721A602B686FF480625A6100
:1049800000232B63202285F83D2085F83E302A6CD9
:1049900042F004022A6485F83C3001204AE0FEF728
:1049A000F7FCA0EB0900404502D8B8F1000F33D165
:1049B000012F17D02B689B6926EA03039BB2003BAB
:1049C00018BF012343B300232B63202285F83D2029
:1049D00085F83E302A6C42F020022A6485F83C308B
:1049E000012027E02B685B6926EA03039BB2003BAA
:1049F00018BF0123E6E72B689C6926EA0404A4B2E9
:104A0000003C18BF0124A4B12B685A6912F4806FCE
:104A1000AED1B8F1FF3FC2D1C6F30747012FEAD1AB
:104A20002B685C6926EA0404A4B2003C18BF012488
:104A3000E9E70020BDE8F88370B504460D46164648
:104A400023685B6913F0800F21D12046FFF71BFF1D
:104A5000F8B9B5F1FF3FF3D0FEF79AFC801BA842EE
:104A600001D8002DECD123685B6913F0800FE7D1EA
:104A700000232363202284F83D2084F83E30226CFA
:104A800042F02002226484F83C30012000E0002043
:104A900070BD0120FCE700002DE9F04385B004461D
:104AA0000D4691461F46DDF830800D9E036819685B
:104AB00041F4807119600096434600224FF00111C5
:104AC000FFF7FAFE60B9236805F0FE051D61334665
:104AD000424626492046FFF744FF68B1012008E01E
:104AE00023681B6813F4807F02D04FF400732364A3
:104AF000032005B0BDE8F0830023039323685A69BF
:104B000003929B690393039B324641462046FFF77D
:104B100093FF30B9012F0FD123685FFA89F61E6128
:104B2000E7E7236C042B01D00120E2E72268136839
:104B300043F400731360F7E723684FEA19221A6100
:104B4000324641462046FFF777FF20B923685FFAD7
:104B500089F61E61CDE7236C042B01D00120C8E744
:104B60002268136843F400731360F7E70200010042
:104B700070B504460D46164623685B6913F0040FB2
:104B800021D12046FFF77FFEF8B9B5F1FF3FF3D002
:104B9000FEF7FEFB801BA84201D8002DECD1236854
:104BA0005B6913F0040FE7D100232363202284F80C
:104BB0003D2084F83E30226C42F02002226484F8CA
:104BC0003C30012000E0002070BD0120FCE7000027
:104BD000002800F0CC8070B5044690F83D30002BE2
:104BE00077D0242384F83D302268136823F0010332
:104BF00013602268136843F400431360226813684B
:104C000023F40043136000F077FC62685A4B9A4229
:104C100064D85A4B98428CBF00230123002B40F0EC
:104C2000A8805749A1FB00318B0C25686A6822F0E7
:104C30003F0242EA91426A6021680A6A22F03F021A
:104C400066684D4DAE424FD8013313430B62216865
:104C5000CA6922F44F4222F0FF026568464B9D422A
:104C60004CD8431E6D00B3FBF5F3013340F6FC70E6
:104C7000034278D0C3F30B031A43CA6121680B685F
:104C800023F0C003E269206A024313430B602168EA
:104C90008B6823F4034323F0FF032269E068024397
:104CA00013438B602168CB6823F0FF036269A0691E
:104CB00002431343CB602268136843F0010313607F
:104CC00000202064202384F83D30206384F83E00D7
:104CD00070BD80F83C30FDF77BFD82E7294B9842A0
:104CE0008CBF0023012399E74FF4967505FB03F36E
:104CF000254DA5FB03539B090133A6E7A668BEB962
:104D0000431E05EB450CB3FBFCF30133C3F30B036C
:104D1000B3FA83F35B0943BBC6B9431E05EB4505F4
:104D2000B3FBF5F30133C3F30B0343F40043A3E7F1
:104D3000431E05EB850C0CEB8C0CB3FBFCF3013331
:104D4000C3F30B03B3FA83F35B09E4E7431E05EBFC
:104D5000850505EB8505B3FBF5F30133C3F30B03C1
:104D600043F4404388E7042386E7012384E70120D6
:104D700070470120ACE700BFA08601007F841E00C1
:104D800083DE1B43FF083D00D34D62102DE9F04345
:104D900083B004460F46904699460C9EFEF7F8FAFB
:104DA000054694F83D00C0B2202803D0022003B08D
:104DB000BDE8F0830095192301224B492046FFF7F7
:104DC0007BFD002840F0898094F83C30012B00F0F6
:104DD0008680012384F83C3023681A6812F0010FA2
:104DE00003D11A6842F001021A602268136823F4A2
:104DF00000631360212384F83D30402384F83E3063
:104E0000002323640A9B6362BDF82C306385638DA5
:104E10002385364BE362019500964B464246394660
:104E20002046FFF739FE00285BD1238D002B35D0BB
:104E30002A4631462046FFF7FFFD20BB626A236801
:104E400012781A61626A531C6362218D013989B23A
:104E50002185638D9BB2013B9BB2638523685869B2
:104E600010F0040FE1D00029DFD052781A61636A94
:104E700001336362238D013B2385638D9BB2013B2C
:104E80009BB26385D1E7236C042B01D001208EE710
:104E90002268136843F400731360F7E72A4631462B
:104EA0002046FFF765FE50B1236C042B01D0012092
:104EB0007DE72268136843F400731360F7E7226804
:104EC000136843F400731360202384F83D300023FB
:104ED00084F83E3084F83C3069E7022067E702201E
:104EE00065E7012063E700BF020010000000FFFF3C
:104EF00082B0084B1B68084AA2FB03235B0A00FB35
:104F000003F3019300BF019B5A1E0192002BF9D1BC
:104F100002B070471C000020D34D6210002800F042
:104F2000F18170B582B00446036813F0010F2CD0F4
:104F3000994B5B6803F00C03042B1DD0964B5B6808
:104F400003F00C03082B12D06368B3F5803F41D007
:104F5000002B55D103F1804303F504331A6822F482
:104F600080321A601A6822F480221A6037E08A4B75
:104F70005B6813F4803FE7D0874B1B6813F4003F56
:104F800003D06368002B00F0BF81236813F0020F89
:104F900075D0814B5B6813F00C0F5FD07E4B5B6864
:104FA00003F00C03082B54D02369002B00F08A80F7
:104FB0007A4B01221A60FEF7EBF90546764B1B6827
:104FC00013F0020F75D1FEF7E3F9401B0228F5D963
:104FD00003209EE1704A136843F4803313606368D2
:104FE00043B3FEF7D5F905466B4B1B6813F4003F3E
:104FF000CBD1FEF7CDF9401B6428F5D9032088E119
:10500000B3F5A02F09D0644B1A6822F480321A60DD
:105010001A6822F480221A60E1E703F18043A3F5C5
:105020003C331A6842F480221A601A6842F48032D3
:105030001A60D4E7FEF7ACF90546574B1B6813F42A
:10504000003FA2D0FEF7A4F9401B6428F5D9032045
:105050005FE1514B5B6813F4803FA5D14E4B1B6859
:1050600013F0020F03D02369012B40F04F814A4A0D
:10507000136823F0F803616943EAC10313602368EE
:1050800013F0080F33D0A369002B5CD0434B0122EF
:10509000C3F88024FEF77CF905463F4B5B6A13F0AA
:1050A000020F21D1FEF774F9401B0228F5D9032025
:1050B0002FE1394A136823F0F803616943EAC10319
:1050C0001360DCE7354B00221A60FEF761F90546F4
:1050D000314B1B6813F0020FD1D0FEF759F9401B7A
:1050E0000228F5D9032014E10120FFF701FF23680E
:1050F00013F0040F00F09680274BDB6913F0805FFC
:1051000034D1254BDA6942F08052DA61DB6903F071
:1051100080530193019B0125214B1B6813F4807F71
:1051200026D0E368012B3DD0002B53D103F18043FF
:1051300003F504331A6A22F001021A621A6A22F095
:1051400004021A6233E0154B0022C3F88024FEF7F4
:105150001FF90546104B5B6A13F0020FC7D0FEF72C
:1051600017F9401B0228F5D90320D2E00025D3E728
:105170000B4A136843F480731360FEF709F906467F
:10518000074B1B6813F4807FCBD1FEF701F9801B1E
:105190006428F5D90320BCE0001002400000424220
:1051A000007000405F4A136A43F001031362E36832
:1051B00033B3FEF7EDF806465A4B1B6A13F0020FA5
:1051C0002FD1FEF7E5F8801B41F288339842F3D9DE
:1051D00003209EE0052B09D0524B1A6A22F00102EF
:1051E0001A621A6A22F004021A62E0E74D4B1A6A48
:1051F00042F004021A621A6A42F001021A62D6E709
:10520000FEF7C6F80646474B1B6A13F0020F08D09C
:10521000FEF7BEF8801B41F288339842F3D9032091
:1052200077E0E5B9E369002B72D03E4A526802F09C
:105230000C02082A56D0022B17D03B4B00221A66CC
:10524000FEF7A6F80446374B1B6813F0007F47D0E3
:10525000FEF79EF8001B0228F5D9032059E0314AD9
:10526000D36923F08053D361DCE72F4B00221A6609
:10527000FEF78EF805462B4B1B6813F0007F06D017
:10528000FEF786F8401B0228F5D9032041E0236A87
:10529000B3F5803F1AD023494B6823F47413226A74
:1052A000606A024313434B601F4B01221A66FEF7EC
:1052B0006FF804461B4B1B6813F0007F0ED1FEF7FE
:1052C00067F8001B0228F5D9032022E0154A53682D
:1052D00023F40033A1680B435360DCE7002018E09F
:1052E000002016E0012B16D00E4B5B6803F48031D2
:1052F000226A914211D103F47013626A93420ED173
:10530000002006E001207047012002E0012000E0BB
:10531000002002B070BD0120FBE70120F9E7012069
:10532000F7E700BF00100240000042420F4B5B68ED
:1053300003F00C02082A01D00D487047C3F38342E2
:105340000C49885C13F4803F0BD0084B5B68C3F3B7
:105350004043094AD35C064A02FB00F0B0FBF3F07D
:105360007047064B03FB00F0704700BF001002407F
:1053700000127A0060ED00085CED000800093D00B5
:10538000002800F0A08070B50D460446524B1B6803
:1053900003F007038B420BD24F4A136823F0070335
:1053A0000B431360136803F007038B4240F08D80BA
:1053B000236813F0020F17D013F0040F04D0474AEC
:1053C000536843F4E0635360236813F0080F04D07C
:1053D000424A536843F460535360404A536823F091
:1053E000F003A1680B435360236813F0010F31D021
:1053F0006368012B20D0022B25D0384A126812F0A6
:10540000020F64D035494A6822F0030213434B600F
:10541000FDF7BEFF0646314B5B6803F00C03626884
:10542000B3EB820F16D0FDF7B3FF801B41F2883338
:105430009842F0D9032045E0284A126812F4003F50
:10544000E0D101203EE0254A126812F0007FD9D158
:10545000012037E0204B1B6803F00703AB420AD959
:105460001D4A136823F007032B431360136803F0EE
:105470000703AB422DD1236813F0040F06D0174A5F
:10548000536823F4E063E1680B435360236813F02F
:10549000080F07D0114A536823F46053216943EA87
:1054A000C1035360FFF742FF0C4B5B68C3F3031368
:1054B0000B4AD35CD8400B4B18600B4B1868FDF7B8
:1054C000B7FA002070BD012070470120FAE70120E3
:1054D000F8E70120F6E700BF00200240001002407C
:1054E0004CED00081C00002024000020014B18682F
:1054F000704700BF1C00002008B5FFF7F7FF044B02
:105500005B68C3F30223034AD35CD84008BD00BFE5
:105510000010024044ED000808B5FFF7E7FF044B18
:105520005B68C3F3C223034AD35CD84008BD00BF05
:105530000010024044ED00080F2303600B4B5A6833
:1055400002F0030242605A6802F0F00282605A6878
:1055500002F4E062C2605B68DB0803F4E0630361AD
:10556000034B1B6803F007030B60704700100240F9
:105570000020024070B582B00446036813F0010FAA
:1055800036D03F4BDB6913F0805F49D13C4BDA6981
:1055900042F08052DA61DB6903F080530193019B92
:1055A0000125384B1B6813F4807F3BD0344B1B6ABA
:1055B00013F4407313D0626802F440729A420ED022
:1055C0002F4A136A23F440702F490126C1F8406422
:1055D0000026C1F84064106213F0010F36D1284A4A
:1055E000136A23F4407361680B431362002D3ED1AC
:1055F000236813F0020F06D0214A536823F4404376
:10560000A1680B435360236813F0100F34D01C4A79
:10561000536823F4800361690B43536000202CE03E
:105620000025BEE7174A136843F480731360FDF743
:10563000AFFE0646134B1B6813F4807FB6D1FDF70F
:10564000A7FE801B6428F5D9032016E0FDF7A0FE15
:1056500006460B4B1B6A13F0020FC0D1FDF798FEF4
:10566000801B41F288339842F3D9032005E0D369C7
:1056700023F08053D361BBE7002002B070BD00BFB0
:1056800000100240007000400000424208B501389E
:105690000F2863D8DFE800F03557622F626262326C
:1056A00062626262626262082F4B5A68186810F088
:1056B000807054D0C2F383432C49C85C12F4803FFD
:1056C00015D0294B5B68C3F34043294AD25C294B70
:1056D000B3FBF2F303FB00F0234B5B6813F4800F82
:1056E0003DD14000244BA3FB0030400837E0234B62
:1056F00003FB00F0F0E7FFF719FE30E0FFF716FEBE
:105700002DE0194B1B6A40F202321A40B2F5817F3C
:1057100026D003F44073B3F5007F04D0B3F5407F87
:1057200009D000201BE0104A526A12F0020FF5D097
:1057300049F6404013E00C4B186810F400300ED0CE
:105740004FF224400BE0FFF7E7FE074B5B68C3F323
:10575000813301335B00B0FBF3F000E0002008BDB3
:105760004FF40040FBE700BF0010024074ED00085A
:1057700070ED000800127A00ABAAAAAA00093D0049
:105780002DE9F04782B00546884617461E46FDF7CC
:10579000FFFD0A9B1B1A03EB0609FDF7F9FD824684
:1057A000284B1B68C3F3CB3309FB03F301932B682E
:1057B0009C6838EA04040CBF01230023BB423DD09F
:1057C000B6F1FF3FF3D0FDF7E3FDA0EB0A0048453B
:1057D00007D2019A02B14A46019B013B01939146CF
:1057E000E5E72A68536823F0E00353606B68B3F57C
:1057F000827F0BD0AB6AB3F5005F14D0012385F82C
:105800005130002385F85030032018E0AB68B3F521
:10581000004F02D0B3F5806FECD12A68136823F0F3
:1058200040031360E6E72A68136823F4005313600B
:105830002A68136843F400531360DFE7002002B0C6
:10584000BDE8F0871C00002010B582B004460B466E
:10585000009200228021FFF793FF08B902B010BD2B
:10586000636D43F0200363650320F7E710B582B052
:1058700004460B464168B1F5827F10D06168B1F5EE
:10588000827F03D1A168B1F5806F15D0009200220C
:1058900080212046FFF774FFE0B902B010BD816897
:1058A000B1F5004F02D0B1F5806FE7D120680168F3
:1058B00021F040010160E1E7009200220121204631
:1058C000FFF75EFF0028E8D0636D43F020036365B7
:1058D0000320E2E7636D43F0200363650320DCE708
:1058E000002856D010B50446436A33B94368B3F56F
:1058F000827F05D00023C36102E00023036143617E
:105900000023A36294F85130002B3CD0022384F88A
:1059100051302268136823F040031360636803F476
:105920008273A26802F404421343E26802F4006244
:105930001343226902F002021343626902F001027A
:105940001343A26902F400721343E26902F03802C1
:105950001343226A02F080021343A26A02F4005247
:10596000216813430B60638B226803F004035360C8
:105970002268D36923F40063D361002060650123AA
:1059800084F8513010BD84F850302046FCF7EAFF0F
:10599000BCE7012070472DE9F04383B01D4690F825
:1059A0005030012B00F0D1800446884691460123F7
:1059B00080F85030FDF7ECFC074694F85160F6B2E1
:1059C000012E40F0BA80B8F1000F00F0B780B9F1B5
:1059D000000F00F0B380032384F851300023636587
:1059E000C4F83080A4F83490A4F83690A363A38759
:1059F000E38763642364A368B3F5004F1ED0236874
:105A00001A6812F0400F03D11A6842F040021A607F
:105A1000E368B3F5006F1CD0636813B1B9F1010FEF
:105A200055D1226B236812781A73236B01332363D9
:105A3000E38E9BB2013B9BB2E38648E02268136889
:105A400023F0400313602268136843F4804313601B
:105A5000D5E7636813B1B9F1010F15D1226B236843
:105A60001288DA60236B02332363E38E9BB2013B1F
:105A70009BB2E38608E0FDF78BFCC01BA84202D373
:105A8000B5F1FF3F15D1A5B1E38E9BB2002B3CD001
:105A900023689A6812F0020FEDD0226B1288DA6048
:105AA000236B02332363E38E9BB2013B9BB2E386FD
:105AB000EAE7012384F8513003263FE0FDF768FC54
:105AC000C01BA84202D3B5F1FF3F19D1C5B1E38E87
:105AD0009BB2D3B123689A6812F0020FEED0226B0A
